{
  "_format": "hh-sol-artifact-1",
  "contractName": "ERC20",
  "sourceName": "contracts/SimpleERC20.sol",
  "abi": [
    {
      "inputs": [
        {
          "internalType": "string",
          "name": "name_",
          "type": "string"
        },
        {
          "internalType": "string",
          "name": "symbol_",
          "type": "string"
        }
      ],
      "stateMutability": "nonpayable",
      "type": "constructor"
    },
    {
      "anonymous": false,
      "inputs": [
        {
          "indexed": true,
          "internalType": "address",
          "name": "owner",
          "type": "address"
        },
        {
          "indexed": true,
          "internalType": "address",
          "name": "spender",
          "type": "address"
        },
        {
          "indexed": false,
          "internalType": "uint256",
          "name": "value",
          "type": "uint256"
        }
      ],
      "name": "Approval",
      "type": "event"
    },
    {
      "anonymous": false,
      "inputs": [
        {
          "indexed": true,
          "internalType": "address",
          "name": "from",
          "type": "address"
        },
        {
          "indexed": true,
          "internalType": "address",
          "name": "to",
          "type": "address"
        },
        {
          "indexed": false,
          "internalType": "uint256",
          "name": "value",
          "type": "uint256"
        }
      ],
      "name": "Transfer",
      "type": "event"
    },
    {
      "inputs": [
        {
          "internalType": "address",
          "name": "owner",
          "type": "address"
        },
        {
          "internalType": "address",
          "name": "spender",
          "type": "address"
        }
      ],
      "name": "allowance",
      "outputs": [
        {
          "internalType": "uint256",
          "name": "",
          "type": "uint256"
        }
      ],
      "stateMutability": "view",
      "type": "function"
    },
    {
      "inputs": [
        {
          "internalType": "address",
          "name": "spender",
          "type": "address"
        },
        {
          "internalType": "uint256",
          "name": "amount",
          "type": "uint256"
        }
      ],
      "name": "approve",
      "outputs": [
        {
          "internalType": "bool",
          "name": "",
          "type": "bool"
        }
      ],
      "stateMutability": "nonpayable",
      "type": "function"
    },
    {
      "inputs": [
        {
          "internalType": "address",
          "name": "account",
          "type": "address"
        }
      ],
      "name": "balanceOf",
      "outputs": [
        {
          "internalType": "uint256",
          "name": "",
          "type": "uint256"
        }
      ],
      "stateMutability": "view",
      "type": "function"
    },
    {
      "inputs": [],
      "name": "decimals",
      "outputs": [
        {
          "internalType": "uint8",
          "name": "",
          "type": "uint8"
        }
      ],
      "stateMutability": "view",
      "type": "function"
    },
    {
      "inputs": [
        {
          "internalType": "address",
          "name": "spender",
          "type": "address"
        },
        {
          "internalType": "uint256",
          "name": "subtractedValue",
          "type": "uint256"
        }
      ],
      "name": "decreaseAllowance",
      "outputs": [
        {
          "internalType": "bool",
          "name": "",
          "type": "bool"
        }
      ],
      "stateMutability": "nonpayable",
      "type": "function"
    },
    {
      "inputs": [
        {
          "internalType": "address",
          "name": "spender",
          "type": "address"
        },
        {
          "internalType": "uint256",
          "name": "addedValue",
          "type": "uint256"
        }
      ],
      "name": "increaseAllowance",
      "outputs": [
        {
          "internalType": "bool",
          "name": "",
          "type": "bool"
        }
      ],
      "stateMutability": "nonpayable",
      "type": "function"
    },
    {
      "inputs": [
        {
          "internalType": "string",
          "name": "name_",
          "type": "string"
        },
        {
          "internalType": "string",
          "name": "symbol_",
          "type": "string"
        }
      ],
      "name": "init",
      "outputs": [],
      "stateMutability": "nonpayable",
      "type": "function"
    },
    {
      "inputs": [],
      "name": "name",
      "outputs": [
        {
          "internalType": "string",
          "name": "",
          "type": "string"
        }
      ],
      "stateMutability": "view",
      "type": "function"
    },
    {
      "inputs": [],
      "name": "symbol",
      "outputs": [
        {
          "internalType": "string",
          "name": "",
          "type": "string"
        }
      ],
      "stateMutability": "view",
      "type": "function"
    },
    {
      "inputs": [],
      "name": "totalSupply",
      "outputs": [
        {
          "internalType": "uint256",
          "name": "",
          "type": "uint256"
        }
      ],
      "stateMutability": "view",
      "type": "function"
    },
    {
      "inputs": [
        {
          "internalType": "address",
          "name": "recipient",
          "type": "address"
        },
        {
          "internalType": "uint256",
          "name": "amount",
          "type": "uint256"
        }
      ],
      "name": "transfer",
      "outputs": [
        {
          "internalType": "bool",
          "name": "",
          "type": "bool"
        }
      ],
      "stateMutability": "nonpayable",
      "type": "function"
    },
    {
      "inputs": [
        {
          "internalType": "address",
          "name": "sender",
          "type": "address"
        },
        {
          "internalType": "address",
          "name": "recipient",
          "type": "address"
        },
        {
          "internalType": "uint256",
          "name": "amount",
          "type": "uint256"
        }
      ],
      "name": "transferFrom",
      "outputs": [
        {
          "internalType": "bool",
          "name": "",
          "type": "bool"
        }
      ],
      "stateMutability": "nonpayable",
      "type": "function"
    }
  ],
  "bytecode": "0x60806040526000600560006101000a81548160ff0219169083151502179055503480156200002c57600080fd5b5060405162001ba938038062001ba9833981810160405281019062000052919062000232565b6200006482826200006c60201b60201c565b505062000498565b600560009054906101000a900460ff1615620000bf576040517f08c379a0000000000000000000000000000000000000000000000000000000008152600401620000b690620002cc565b60405180910390fd5b6001600560006101000a81548160ff0219169083151502179055508160039080519060200190620000f292919062000110565b5080600490805190602001906200010b92919062000110565b505050565b8280546200011e9062000394565b90600052602060002090601f0160209004810192826200014257600085556200018e565b82601f106200015d57805160ff19168380011785556200018e565b828001600101855582156200018e579182015b828111156200018d57825182559160200191906001019062000170565b5b5090506200019d9190620001a1565b5090565b5b80821115620001bc576000816000905550600101620001a2565b5090565b6000620001d7620001d18462000317565b620002ee565b905082815260208101848484011115620001f057600080fd5b620001fd8482856200035e565b509392505050565b600082601f8301126200021757600080fd5b815162000229848260208601620001c0565b91505092915050565b600080604083850312156200024657600080fd5b600083015167ffffffffffffffff8111156200026157600080fd5b6200026f8582860162000205565b925050602083015167ffffffffffffffff8111156200028d57600080fd5b6200029b8582860162000205565b9150509250929050565b6000620002b46013836200034d565b9150620002c1826200046f565b602082019050919050565b60006020820190508181036000830152620002e781620002a5565b9050919050565b6000620002fa6200030d565b9050620003088282620003ca565b919050565b6000604051905090565b600067ffffffffffffffff8211156200033557620003346200042f565b5b62000340826200045e565b9050602081019050919050565b600082825260208201905092915050565b60005b838110156200037e57808201518184015260208101905062000361565b838111156200038e576000848401525b50505050565b60006002820490506001821680620003ad57607f821691505b60208210811415620003c457620003c362000400565b5b50919050565b620003d5826200045e565b810181811067ffffffffffffffff82111715620003f757620003f66200042f565b5b80604052505050565b7f4e487b7100000000000000000000000000000000000000000000000000000000600052602260045260246000fd5b7f4e487b7100000000000000000000000000000000000000000000000000000000600052604160045260246000fd5b6000601f19601f8301169050919050565b7f616c726561647920696e697469616c697a656400000000000000000000000000600082015250565b61170180620004a86000396000f3fe608060405234801561001057600080fd5b50600436106100b45760003560e01c80637029144c116100715780637029144c146101a357806370a08231146101bf57806395d89b41146101ef578063a457c2d71461020d578063a9059cbb1461023d578063dd62ed3e1461026d576100b4565b806306fdde03146100b9578063095ea7b3146100d757806318160ddd1461010757806323b872dd14610125578063313ce567146101555780633950935114610173575b600080fd5b6100c161029d565b6040516100ce9190611093565b60405180910390f35b6100f160048036038101906100ec9190610e52565b61032f565b6040516100fe9190611078565b60405180910390f35b61010f61034d565b60405161011c91906111b5565b60405180910390f35b61013f600480360381019061013a9190610e03565b610357565b60405161014c9190611078565b60405180910390f35b61015d61044f565b60405161016a91906111d0565b60405180910390f35b61018d60048036038101906101889190610e52565b610458565b60405161019a9190611078565b60405180910390f35b6101bd60048036038101906101b89190610e8e565b610504565b005b6101d960048036038101906101d49190610d9e565b6105a1565b6040516101e691906111b5565b60405180910390f35b6101f76105e9565b6040516102049190611093565b60405180910390f35b61022760048036038101906102229190610e52565b61067b565b6040516102349190611078565b60405180910390f35b61025760048036038101906102529190610e52565b610766565b6040516102649190611078565b60405180910390f35b61028760048036038101906102829190610dc7565b610784565b60405161029491906111b5565b60405180910390f35b6060600380546102ac9061134a565b80601f01602080910402602001604051908101604052809291908181526020018280546102d89061134a565b80156103255780601f106102fa57610100808354040283529160200191610325565b820191906000526020600020905b81548152906001019060200180831161030857829003601f168201915b5050505050905090565b600061034361033c61080b565b8484610813565b6001905092915050565b6000600254905090565b60006103648484846109de565b6000600160008673ffffffffffffffffffffffffffffffffffffffff1673ffffffffffffffffffffffffffffffffffffffff16815260200190815260200160002060006103af61080b565b73ffffffffffffffffffffffffffffffffffffffff1673ffffffffffffffffffffffffffffffffffffffff1681526020019081526020016000205490508281101561042f576040517f08c379a000000000000000000000000000000000000000000000000000000000815260040161042690611135565b60405180910390fd5b6104438561043b61080b565b858403610813565b60019150509392505050565b60006012905090565b60006104fa61046561080b565b84846001600061047361080b565b73ffffffffffffffffffffffffffffffffffffffff1673ffffffffffffffffffffffffffffffffffffffff16815260200190815260200160002060008873ffffffffffffffffffffffffffffffffffffffff1673ffffffffffffffffffffffffffffffffffffffff168152602001908152602001600020546104f5919061125d565b610813565b6001905092915050565b600560009054906101000a900460ff1615610554576040517f08c379a000000000000000000000000000000000000000000000000000000000815260040161054b90611115565b60405180910390fd5b6001600560006101000a81548160ff0219169083151502179055508160039080519060200190610585929190610c69565b50806004908051906020019061059c929190610c69565b505050565b60008060008373ffffffffffffffffffffffffffffffffffffffff1673ffffffffffffffffffffffffffffffffffffffff168152602001908152602001600020549050919050565b6060600480546105f89061134a565b80601f01602080910402602001604051908101604052809291908181526020018280546106249061134a565b80156106715780601f1061064657610100808354040283529160200191610671565b820191906000526020600020905b81548152906001019060200180831161065457829003601f168201915b5050505050905090565b6000806001600061068a61080b565b73ffffffffffffffffffffffffffffffffffffffff1673ffffffffffffffffffffffffffffffffffffffff16815260200190815260200160002060008573ffffffffffffffffffffffffffffffffffffffff1673ffffffffffffffffffffffffffffffffffffffff16815260200190815260200160002054905082811015610747576040517f08c379a000000000000000000000000000000000000000000000000000000000815260040161073e90611195565b60405180910390fd5b61075b61075261080b565b85858403610813565b600191505092915050565b600061077a61077361080b565b84846109de565b6001905092915050565b6000600160008473ffffffffffffffffffffffffffffffffffffffff1673ffffffffffffffffffffffffffffffffffffffff16815260200190815260200160002060008373ffffffffffffffffffffffffffffffffffffffff1673ffffffffffffffffffffffffffffffffffffffff16815260200190815260200160002054905092915050565b600033905090565b600073ffffffffffffffffffffffffffffffffffffffff168373ffffffffffffffffffffffffffffffffffffffff161415610883576040517f08c379a000000000000000000000000000000000000000000000000000000000815260040161087a90611175565b60405180910390fd5b600073ffffffffffffffffffffffffffffffffffffffff168273ffffffffffffffffffffffffffffffffffffffff1614156108f3576040517f08c379a00000000000000000000000000000000000000000000000000000000081526004016108ea906110d5565b60405180910390fd5b80600160008573ffffffffffffffffffffffffffffffffffffffff1673ffffffffffffffffffffffffffffffffffffffff16815260200190815260200160002060008473ffffffffffffffffffffffffffffffffffffffff1673ffffffffffffffffffffffffffffffffffffffff168152602001908152602001600020819055508173ffffffffffffffffffffffffffffffffffffffff168373ffffffffffffffffffffffffffffffffffffffff167f8c5be1e5ebec7d5bd14f71427d1e84f3dd0314c0f7b2291e5b200ac8c7c3b925836040516109d191906111b5565b60405180910390a3505050565b600073ffffffffffffffffffffffffffffffffffffffff168373ffffffffffffffffffffffffffffffffffffffff161415610a4e576040517f08c379a0000000000000000000000000000000000000000000000000000000008152600401610a4590611155565b60405180910390fd5b600073ffffffffffffffffffffffffffffffffffffffff168273ffffffffffffffffffffffffffffffffffffffff161415610abe576040517f08c379a0000000000000000000000000000000000000000000000000000000008152600401610ab5906110b5565b60405180910390fd5b610ac9838383610c5f565b60008060008573ffffffffffffffffffffffffffffffffffffffff1673ffffffffffffffffffffffffffffffffffffffff16815260200190815260200160002054905081811015610b4f576040517f08c379a0000000000000000000000000000000000000000000000000000000008152600401610b46906110f5565b60405180910390fd5b8181036000808673ffffffffffffffffffffffffffffffffffffffff1673ffffffffffffffffffffffffffffffffffffffff16815260200190815260200160002081905550816000808573ffffffffffffffffffffffffffffffffffffffff1673ffffffffffffffffffffffffffffffffffffffff1681526020019081526020016000206000828254610be2919061125d565b925050819055508273ffffffffffffffffffffffffffffffffffffffff168473ffffffffffffffffffffffffffffffffffffffff167fddf252ad1be2c89b69c2b068fc378daa952ba7f163c4a11628f55a4df523b3ef84604051610c4691906111b5565b60405180910390a3610c59848484610c64565b50505050565b505050565b505050565b828054610c759061134a565b90600052602060002090601f016020900481019282610c975760008555610cde565b82601f10610cb057805160ff1916838001178555610cde565b82800160010185558215610cde579182015b82811115610cdd578251825591602001919060010190610cc2565b5b509050610ceb9190610cef565b5090565b5b80821115610d08576000816000905550600101610cf0565b5090565b6000610d1f610d1a84611210565b6111eb565b905082815260208101848484011115610d3757600080fd5b610d42848285611308565b509392505050565b600081359050610d598161169d565b92915050565b600082601f830112610d7057600080fd5b8135610d80848260208601610d0c565b91505092915050565b600081359050610d98816116b4565b92915050565b600060208284031215610db057600080fd5b6000610dbe84828501610d4a565b91505092915050565b60008060408385031215610dda57600080fd5b6000610de885828601610d4a565b9250506020610df985828601610d4a565b9150509250929050565b600080600060608486031215610e1857600080fd5b6000610e2686828701610d4a565b9350506020610e3786828701610d4a565b9250506040610e4886828701610d89565b9150509250925092565b60008060408385031215610e6557600080fd5b6000610e7385828601610d4a565b9250506020610e8485828601610d89565b9150509250929050565b60008060408385031215610ea157600080fd5b600083013567ffffffffffffffff811115610ebb57600080fd5b610ec785828601610d5f565b925050602083013567ffffffffffffffff811115610ee457600080fd5b610ef085828601610d5f565b9150509250929050565b610f03816112c5565b82525050565b6000610f1482611241565b610f1e818561124c565b9350610f2e818560208601611317565b610f378161143a565b840191505092915050565b6000610f4f60238361124c565b9150610f5a8261144b565b604082019050919050565b6000610f7260228361124c565b9150610f7d8261149a565b604082019050919050565b6000610f9560268361124c565b9150610fa0826114e9565b604082019050919050565b6000610fb860138361124c565b9150610fc382611538565b602082019050919050565b6000610fdb60288361124c565b9150610fe682611561565b604082019050919050565b6000610ffe60258361124c565b9150611009826115b0565b604082019050919050565b600061102160248361124c565b915061102c826115ff565b604082019050919050565b600061104460258361124c565b915061104f8261164e565b604082019050919050565b611063816112f1565b82525050565b611072816112fb565b82525050565b600060208201905061108d6000830184610efa565b92915050565b600060208201905081810360008301526110ad8184610f09565b905092915050565b600060208201905081810360008301526110ce81610f42565b9050919050565b600060208201905081810360008301526110ee81610f65565b9050919050565b6000602082019050818103600083015261110e81610f88565b9050919050565b6000602082019050818103600083015261112e81610fab565b9050919050565b6000602082019050818103600083015261114e81610fce565b9050919050565b6000602082019050818103600083015261116e81610ff1565b9050919050565b6000602082019050818103600083015261118e81611014565b9050919050565b600060208201905081810360008301526111ae81611037565b9050919050565b60006020820190506111ca600083018461105a565b92915050565b60006020820190506111e56000830184611069565b92915050565b60006111f5611206565b9050611201828261137c565b919050565b6000604051905090565b600067ffffffffffffffff82111561122b5761122a61140b565b5b6112348261143a565b9050602081019050919050565b600081519050919050565b600082825260208201905092915050565b6000611268826112f1565b9150611273836112f1565b9250827fffffffffffffffffffffffffffffffffffffffffffffffffffffffffffffffff038211156112a8576112a76113ad565b5b828201905092915050565b60006112be826112d1565b9050919050565b60008115159050919050565b600073ffffffffffffffffffffffffffffffffffffffff82169050919050565b6000819050919050565b600060ff82169050919050565b82818337600083830152505050565b60005b8381101561133557808201518184015260208101905061131a565b83811115611344576000848401525b50505050565b6000600282049050600182168061136257607f821691505b60208210811415611376576113756113dc565b5b50919050565b6113858261143a565b810181811067ffffffffffffffff821117156113a4576113a361140b565b5b80604052505050565b7f4e487b7100000000000000000000000000000000000000000000000000000000600052601160045260246000fd5b7f4e487b7100000000000000000000000000000000000000000000000000000000600052602260045260246000fd5b7f4e487b7100000000000000000000000000000000000000000000000000000000600052604160045260246000fd5b6000601f19601f8301169050919050565b7f45524332303a207472616e7366657220746f20746865207a65726f206164647260008201527f6573730000000000000000000000000000000000000000000000000000000000602082015250565b7f45524332303a20617070726f766520746f20746865207a65726f20616464726560008201527f7373000000000000000000000000000000000000000000000000000000000000602082015250565b7f45524332303a207472616e7366657220616d6f756e742065786365656473206260008201527f616c616e63650000000000000000000000000000000000000000000000000000602082015250565b7f616c726561647920696e697469616c697a656400000000000000000000000000600082015250565b7f45524332303a207472616e7366657220616d6f756e742065786365656473206160008201527f6c6c6f77616e6365000000000000000000000000000000000000000000000000602082015250565b7f45524332303a207472616e736665722066726f6d20746865207a65726f20616460008201527f6472657373000000000000000000000000000000000000000000000000000000602082015250565b7f45524332303a20617070726f76652066726f6d20746865207a65726f2061646460008201527f7265737300000000000000000000000000000000000000000000000000000000602082015250565b7f45524332303a2064656372656173656420616c6c6f77616e63652062656c6f7760008201527f207a65726f000000000000000000000000000000000000000000000000000000602082015250565b6116a6816112b3565b81146116b157600080fd5b50565b6116bd816112f1565b81146116c857600080fd5b5056fea2646970667358221220e4b268d3eaf49936ee102f802d7e5da6e75dcb27f590187b117ee43de8ee7dc164736f6c63430008040033",
  "linkReferences": {},
  "deployedLinkReferences": {}
}