{
  "_format": "hh-sol-artifact-1",
  "contractName": "Child",
  "sourceName": "contracts/Factory.sol",
  "abi": [
    {
      "inputs": [],
      "name": "data",
      "outputs": [
        {
          "internalType": "uint256",
          "name": "",
          "type": "uint256"
        }
      ],
      "stateMutability": "view",
      "type": "function"
    },
    {
      "inputs": [
        {
          "internalType": "string",
          "name": "name_",
          "type": "string"
        },
        {
          "internalType": "string",
          "name": "symbol_",
          "type": "string"
        }
      ],
      "name": "init",
      "outputs": [],
      "stateMutability": "nonpayable",
      "type": "function"
    }
  ],
  "bytecode": "0x608060405234801561001057600080fd5b50610293806100206000396000f3fe608060405234801561001057600080fd5b50600436106100365760003560e01c80637029144c1461003b57806373d4a13a14610057575b600080fd5b610055600480360381019061005091906100e7565b610075565b005b61005f610079565b60405161006c9190610162565b60405180910390f35b5050565b60005481565b600061009261008d846101a2565b61017d565b9050828152602081018484840111156100aa57600080fd5b6100b58482856101dd565b509392505050565b600082601f8301126100ce57600080fd5b81356100de84826020860161007f565b91505092915050565b600080604083850312156100fa57600080fd5b600083013567ffffffffffffffff81111561011457600080fd5b610120858286016100bd565b925050602083013567ffffffffffffffff81111561013d57600080fd5b610149858286016100bd565b9150509250929050565b61015c816101d3565b82525050565b60006020820190506101776000830184610153565b92915050565b6000610187610198565b905061019382826101ec565b919050565b6000604051905090565b600067ffffffffffffffff8211156101bd576101bc61021d565b5b6101c68261024c565b9050602081019050919050565b6000819050919050565b82818337600083830152505050565b6101f58261024c565b810181811067ffffffffffffffff821117156102145761021361021d565b5b80604052505050565b7f4e487b7100000000000000000000000000000000000000000000000000000000600052604160045260246000fd5b6000601f19601f830116905091905056fea26469706673582212200651678e8bf8bbab2466f9aaa02dceabe4dd5ca7bba7abd53e4073da783a43cc64736f6c63430008040033",
  "linkReferences": {},
  "deployedLinkReferences": {}
}