{
  "_format": "hh-sol-artifact-1",
  "contractName": "Factory",
  "sourceName": "contracts/Factory.sol",
  "abi": [
    {
      "inputs": [
        {
          "internalType": "address",
          "name": "_masterContract",
          "type": "address"
        }
      ],
      "stateMutability": "nonpayable",
      "type": "constructor"
    },
    {
      "inputs": [
        {
          "internalType": "uint256",
          "name": "",
          "type": "uint256"
        }
      ],
      "name": "children",
      "outputs": [
        {
          "internalType": "contract Child",
          "name": "",
          "type": "address"
        }
      ],
      "stateMutability": "view",
      "type": "function"
    },
    {
      "inputs": [
        {
          "internalType": "string",
          "name": "name_",
          "type": "string"
        },
        {
          "internalType": "string",
          "name": "symbol_",
          "type": "string"
        }
      ],
      "name": "createChild",
      "outputs": [],
      "stateMutability": "nonpayable",
      "type": "function"
    },
    {
      "inputs": [],
      "name": "getChildren",
      "outputs": [
        {
          "internalType": "contract Child[]",
          "name": "",
          "type": "address[]"
        }
      ],
      "stateMutability": "view",
      "type": "function"
    }
  ],
  "bytecode": "0x608060405234801561001057600080fd5b506040516108463803806108468339818101604052810190610032919061008e565b80600160006101000a81548173ffffffffffffffffffffffffffffffffffffffff021916908373ffffffffffffffffffffffffffffffffffffffff16021790555050610100565b600081519050610088816100e9565b92915050565b6000602082840312156100a057600080fd5b60006100ae84828501610079565b91505092915050565b60006100c2826100c9565b9050919050565b600073ffffffffffffffffffffffffffffffffffffffff82169050919050565b6100f2816100b7565b81146100fd57600080fd5b50565b6107378061010f6000396000f3fe608060405234801561001057600080fd5b50600436106100415760003560e01c80634565e1d5146100465780634892e8e8146100625780637002ce4214610080575b600080fd5b610060600480360381019061005b9190610368565b6100b0565b005b61006a6101b4565b60405161007791906104ca565b60405180910390f35b61009a600480360381019061009591906103d4565b610242565b6040516100a791906104ec565b60405180910390f35b60006100dd600160009054906101000a900473ffffffffffffffffffffffffffffffffffffffff16610281565b90508073ffffffffffffffffffffffffffffffffffffffff16637029144c84846040518363ffffffff1660e01b815260040161011a929190610507565b600060405180830381600087803b15801561013457600080fd5b505af1158015610148573d6000803e3d6000fd5b505050506000819080600181540180825580915050600190039060005260206000200160009091909190916101000a81548173ffffffffffffffffffffffffffffffffffffffff021916908373ffffffffffffffffffffffffffffffffffffffff160217905550505050565b6060600080548060200260200160405190810160405280929190818152602001828054801561023857602002820191906000526020600020905b8160009054906101000a900473ffffffffffffffffffffffffffffffffffffffff1673ffffffffffffffffffffffffffffffffffffffff16815260200190600101908083116101ee575b5050505050905090565b6000818154811061025257600080fd5b906000526020600020016000915054906101000a900473ffffffffffffffffffffffffffffffffffffffff1681565b6000808260601b90506040517f3d602d80600a3d3981f3363d3d373d3d3d363d7300000000000000000000000081528160148201527f5af43d82803e903d91602b57fd5bf3000000000000000000000000000000000060288201526037816000f092505050919050565b60006102fe6102f984610563565b61053e565b90508281526020810184848401111561031657600080fd5b610321848285610637565b509392505050565b600082601f83011261033a57600080fd5b813561034a8482602086016102eb565b91505092915050565b600081359050610362816106ea565b92915050565b6000806040838503121561037b57600080fd5b600083013567ffffffffffffffff81111561039557600080fd5b6103a185828601610329565b925050602083013567ffffffffffffffff8111156103be57600080fd5b6103ca85828601610329565b9150509250929050565b6000602082840312156103e657600080fd5b60006103f484828501610353565b91505092915050565b60006104098383610473565b60208301905092915050565b6000610420826105a4565b61042a81856105c7565b935061043583610594565b8060005b8381101561046657815161044d88826103fd565b9750610458836105ba565b925050600181019050610439565b5085935050505092915050565b61047c81610613565b82525050565b61048b81610613565b82525050565b600061049c826105af565b6104a681856105d8565b93506104b6818560208601610646565b6104bf816106d9565b840191505092915050565b600060208201905081810360008301526104e48184610415565b905092915050565b60006020820190506105016000830184610482565b92915050565b600060408201905081810360008301526105218185610491565b905081810360208301526105358184610491565b90509392505050565b6000610548610559565b90506105548282610679565b919050565b6000604051905090565b600067ffffffffffffffff82111561057e5761057d6106aa565b5b610587826106d9565b9050602081019050919050565b6000819050602082019050919050565b600081519050919050565b600081519050919050565b6000602082019050919050565b600082825260208201905092915050565b600082825260208201905092915050565b600073ffffffffffffffffffffffffffffffffffffffff82169050919050565b6000819050919050565b600061061e82610625565b9050919050565b6000610630826105e9565b9050919050565b82818337600083830152505050565b60005b83811015610664578082015181840152602081019050610649565b83811115610673576000848401525b50505050565b610682826106d9565b810181811067ffffffffffffffff821117156106a1576106a06106aa565b5b80604052505050565b7f4e487b7100000000000000000000000000000000000000000000000000000000600052604160045260246000fd5b6000601f19601f8301169050919050565b6106f381610609565b81146106fe57600080fd5b5056fea2646970667358221220445ebaad16a62d3686cf40082690288442a1dae3f88bb4e7599774cfeb55bf2f64736f6c63430008040033",
  "linkReferences": {},
  "deployedLinkReferences": {}
}