{
  "contracts/Factory.sol": {
    "Child": {
      "abi": [
        {
          "inputs": [],
          "name": "data",
          "outputs": [
            {
              "internalType": "uint256",
              "name": "",
              "type": "uint256"
            }
          ],
          "stateMutability": "view",
          "type": "function"
        },
        {
          "inputs": [
            {
              "internalType": "string",
              "name": "name_",
              "type": "string"
            },
            {
              "internalType": "string",
              "name": "symbol_",
              "type": "string"
            }
          ],
          "name": "init",
          "outputs": [],
          "stateMutability": "nonpayable",
          "type": "function"
        }
      ],
      "devdoc": {
        "kind": "dev",
        "methods": {},
        "version": 1
      },
      "evm": {
        "bytecode": {
          "linkReferences": {},
          "object": "608060405234801561001057600080fd5b50610293806100206000396000f3fe608060405234801561001057600080fd5b50600436106100365760003560e01c80637029144c1461003b57806373d4a13a14610057575b600080fd5b610055600480360381019061005091906100e7565b610075565b005b61005f610079565b60405161006c9190610162565b60405180910390f35b5050565b60005481565b600061009261008d846101a2565b61017d565b9050828152602081018484840111156100aa57600080fd5b6100b58482856101dd565b509392505050565b600082601f8301126100ce57600080fd5b81356100de84826020860161007f565b91505092915050565b600080604083850312156100fa57600080fd5b600083013567ffffffffffffffff81111561011457600080fd5b610120858286016100bd565b925050602083013567ffffffffffffffff81111561013d57600080fd5b610149858286016100bd565b9150509250929050565b61015c816101d3565b82525050565b60006020820190506101776000830184610153565b92915050565b6000610187610198565b905061019382826101ec565b919050565b6000604051905090565b600067ffffffffffffffff8211156101bd576101bc61021d565b5b6101c68261024c565b9050602081019050919050565b6000819050919050565b82818337600083830152505050565b6101f58261024c565b810181811067ffffffffffffffff821117156102145761021361021d565b5b80604052505050565b7f4e487b7100000000000000000000000000000000000000000000000000000000600052604160045260246000fd5b6000601f19601f830116905091905056fea26469706673582212200651678e8bf8bbab2466f9aaa02dceabe4dd5ca7bba7abd53e4073da783a43cc64736f6c63430008040033",
          "opcodes": "PUSH1 0x80 PUSH1 0x40 MSTORE CALLVALUE DUP1 ISZERO PUSH2 0x10 JUMPI PUSH1 0x0 DUP1 REVERT JUMPDEST POP PUSH2 0x293 DUP1 PUSH2 0x20 PUSH1 0x0 CODECOPY PUSH1 0x0 RETURN INVALID PUSH1 0x80 PUSH1 0x40 MSTORE CALLVALUE DUP1 ISZERO PUSH2 0x10 JUMPI PUSH1 0x0 DUP1 REVERT JUMPDEST POP PUSH1 0x4 CALLDATASIZE LT PUSH2 0x36 JUMPI PUSH1 0x0 CALLDATALOAD PUSH1 0xE0 SHR DUP1 PUSH4 0x7029144C EQ PUSH2 0x3B JUMPI DUP1 PUSH4 0x73D4A13A EQ PUSH2 0x57 JUMPI JUMPDEST PUSH1 0x0 DUP1 REVERT JUMPDEST PUSH2 0x55 PUSH1 0x4 DUP1 CALLDATASIZE SUB DUP2 ADD SWAP1 PUSH2 0x50 SWAP2 SWAP1 PUSH2 0xE7 JUMP JUMPDEST PUSH2 0x75 JUMP JUMPDEST STOP JUMPDEST PUSH2 0x5F PUSH2 0x79 JUMP JUMPDEST PUSH1 0x40 MLOAD PUSH2 0x6C SWAP2 SWAP1 PUSH2 0x162 JUMP JUMPDEST PUSH1 0x40 MLOAD DUP1 SWAP2 SUB SWAP1 RETURN JUMPDEST POP POP JUMP JUMPDEST PUSH1 0x0 SLOAD DUP2 JUMP JUMPDEST PUSH1 0x0 PUSH2 0x92 PUSH2 0x8D DUP5 PUSH2 0x1A2 JUMP JUMPDEST PUSH2 0x17D JUMP JUMPDEST SWAP1 POP DUP3 DUP2 MSTORE PUSH1 0x20 DUP2 ADD DUP5 DUP5 DUP5 ADD GT ISZERO PUSH2 0xAA JUMPI PUSH1 0x0 DUP1 REVERT JUMPDEST PUSH2 0xB5 DUP5 DUP3 DUP6 PUSH2 0x1DD JUMP JUMPDEST POP SWAP4 SWAP3 POP POP POP JUMP JUMPDEST PUSH1 0x0 DUP3 PUSH1 0x1F DUP4 ADD SLT PUSH2 0xCE JUMPI PUSH1 0x0 DUP1 REVERT JUMPDEST DUP2 CALLDATALOAD PUSH2 0xDE DUP5 DUP3 PUSH1 0x20 DUP7 ADD PUSH2 0x7F JUMP JUMPDEST SWAP2 POP POP SWAP3 SWAP2 POP POP JUMP JUMPDEST PUSH1 0x0 DUP1 PUSH1 0x40 DUP4 DUP6 SUB SLT ISZERO PUSH2 0xFA JUMPI PUSH1 0x0 DUP1 REVERT JUMPDEST PUSH1 0x0 DUP4 ADD CALLDATALOAD PUSH8 0xFFFFFFFFFFFFFFFF DUP2 GT ISZERO PUSH2 0x114 JUMPI PUSH1 0x0 DUP1 REVERT JUMPDEST PUSH2 0x120 DUP6 DUP3 DUP7 ADD PUSH2 0xBD JUMP JUMPDEST SWAP3 POP POP PUSH1 0x20 DUP4 ADD CALLDATALOAD PUSH8 0xFFFFFFFFFFFFFFFF DUP2 GT ISZERO PUSH2 0x13D JUMPI PUSH1 0x0 DUP1 REVERT JUMPDEST PUSH2 0x149 DUP6 DUP3 DUP7 ADD PUSH2 0xBD JUMP JUMPDEST SWAP2 POP POP SWAP3 POP SWAP3 SWAP1 POP JUMP JUMPDEST PUSH2 0x15C DUP2 PUSH2 0x1D3 JUMP JUMPDEST DUP3 MSTORE POP POP JUMP JUMPDEST PUSH1 0x0 PUSH1 0x20 DUP3 ADD SWAP1 POP PUSH2 0x177 PUSH1 0x0 DUP4 ADD DUP5 PUSH2 0x153 JUMP JUMPDEST SWAP3 SWAP2 POP POP JUMP JUMPDEST PUSH1 0x0 PUSH2 0x187 PUSH2 0x198 JUMP JUMPDEST SWAP1 POP PUSH2 0x193 DUP3 DUP3 PUSH2 0x1EC JUMP JUMPDEST SWAP2 SWAP1 POP JUMP JUMPDEST PUSH1 0x0 PUSH1 0x40 MLOAD SWAP1 POP SWAP1 JUMP JUMPDEST PUSH1 0x0 PUSH8 0xFFFFFFFFFFFFFFFF DUP3 GT ISZERO PUSH2 0x1BD JUMPI PUSH2 0x1BC PUSH2 0x21D JUMP JUMPDEST JUMPDEST PUSH2 0x1C6 DUP3 PUSH2 0x24C JUMP JUMPDEST SWAP1 POP PUSH1 0x20 DUP2 ADD SWAP1 POP SWAP2 SWAP1 POP JUMP JUMPDEST PUSH1 0x0 DUP2 SWAP1 POP SWAP2 SWAP1 POP JUMP JUMPDEST DUP3 DUP2 DUP4 CALLDATACOPY PUSH1 0x0 DUP4 DUP4 ADD MSTORE POP POP POP JUMP JUMPDEST PUSH2 0x1F5 DUP3 PUSH2 0x24C JUMP JUMPDEST DUP2 ADD DUP2 DUP2 LT PUSH8 0xFFFFFFFFFFFFFFFF DUP3 GT OR ISZERO PUSH2 0x214 JUMPI PUSH2 0x213 PUSH2 0x21D JUMP JUMPDEST JUMPDEST DUP1 PUSH1 0x40 MSTORE POP POP POP JUMP JUMPDEST PUSH32 0x4E487B7100000000000000000000000000000000000000000000000000000000 PUSH1 0x0 MSTORE PUSH1 0x41 PUSH1 0x4 MSTORE PUSH1 0x24 PUSH1 0x0 REVERT JUMPDEST PUSH1 0x0 PUSH1 0x1F NOT PUSH1 0x1F DUP4 ADD AND SWAP1 POP SWAP2 SWAP1 POP JUMP INVALID LOG2 PUSH5 0x6970667358 0x22 SLT KECCAK256 MOD MLOAD PUSH8 0x8E8BF8BBAB2466F9 0xAA LOG0 0x2D 0xCE 0xAB 0xE4 0xDD 0x5C 0xA7 0xBB 0xA7 0xAB 0xD5 RETURNDATACOPY BLOCKHASH PUSH20 0xDA783A43CC64736F6C6343000804003300000000 "
        },
        "gasEstimates": {
          "creation": {
            "codeDepositCost": "131800",
            "executionCost": "177",
            "totalCost": "131977"
          },
          "external": {
            "data()": "1129",
            "init(string,string)": "infinite"
          }
        },
        "methodIdentifiers": {
          "data()": "73d4a13a",
          "init(string,string)": "7029144c"
        }
      },
      "storageLayout": {
        "storage": [
          {
            "astId": 100,
            "contract": "contracts/Factory.sol:Child",
            "label": "data",
            "offset": 0,
            "slot": "0",
            "type": "t_uint256"
          }
        ],
        "types": {
          "t_uint256": {
            "encoding": "inplace",
            "label": "uint256",
            "numberOfBytes": "32"
          }
        }
      },
      "userdoc": {
        "kind": "user",
        "methods": {},
        "version": 1
      }
    }
  }
}